:020000021000EC
:10FC0000112494B714BE892F8D7011F0892F0ED155
:10FC100085E08093810082E08093C00088E180933A
:10FC2000C10086E08093C20080E18093C4008EE032
:10FC3000E7D0279A86E020E33CEF91E030938500FF
:10FC40002093840096BBB09BFECF1F9AA89581504D
:10FC5000A9F7CC24DD248824839425E0A22E91E109
:10FC6000992EC2D0813471F4BFD0182FCFD0123862
:10FC700011F482E005C0113811F486E001C083E080
:10FC8000ABD0A7C0823411F484E103C0853419F4E9
:10FC900085E0C4D09EC08535A1F4A6D0082F10E021
:10FCA000A3D0E82EFF24FE2CEE24E02AF12A8F2D8B
:10FCB000881F8827881F8BBFEE0CFF1CA7D0670109
:10FCC00088C0863521F484E0A9D080E0D9CF84367D
:10FCD00009F052C089D090E0182F002785D090E01D
:10FCE000082B192B81D0B82EE801E12CA2E0FA2EC6
:10FCF0007BD0F70181937F012197D1F787D0F5E47D
:10FD0000BF1689F4E601E12CF2E0FF2E08C0CE0117
:10FD10002196F70161917F0197D0015010400115A4
:10FD20001105A9F756C083E0F60187BFE89507B62D
:10FD300000FCFDCFB801A601A0E0B2E02C9130E0BC
:10FD400011968C91119790E0982F8827822B932BF6
:10FD50001296FA010C0187BEE89511244E5F5F4FA1
:10FD60006250704059F7F601A7BEE89507B600FC4F
:10FD7000FDCF97BEE8952DC08437F1F435D090E0E3
:10FD8000D82FCC2731D090E0C82BD92B2DD0182FCD
:10FD90003DD0153449F48601C8010F5F1F4F4CD088
:10FDA0001BD02197C9F715C08601F80187918F01F3
:10FDB00013D02197D1F70DC0853731F427D08EE1CC
:10FDC0000BD087E909D05BCF813511F488E018D0DA
:10FDD0001DD080E101D045CF982F8091C00085FFD4
:10FDE000FCCF9093C60008958091C00087FFFCCFA0
:10FDF0008091C00084FD01C0A8958091C60008953F
:10FE0000E0E6F0E098E1908380830895EDDF8032B2
:10FE100019F088E0F5DFFFCF84E1DECF1F93182FC4
:10FE2000E3DF1150E9F7F2DF1F910895282E80E0FB
:10FE3000E7DFEE27FF270994F999FECF92BD81BD38
:10FE4000F89A992780B50895262FF999FECF1FBA01
:10FE500092BD81BD20BD0FB6F894FA9AF99A0FBEF3
:04FE6000019608956A
:02FFFE000206F9
:040000031000FC00ED
:00000001FF
