:107E0000112484B714BE81FD01C0EDD085E08093BC
:107E1000810082E08093C00088E18093C10086E009
:107E20008093C20080E18093C4008EE0C6D0259A82
:107E300086E020E33CEF91E03093850020938400BE
:107E400096BBB09BFECF1D9AA8958150A9F7AA2496
:107E5000BB2433E0832E7724739425E0922E91E1A6
:107E6000C92E9FD0813461F49CD0182FACD0123829
:107E700029F1113811F486E001C083E08AD086C070
:107E8000823411F484E103C0853419F485E0A3D071
:107E90007DC0853579F485D0E82EFF2482D0082F67
:107EA00010E0102F00270E291F29000F111F8BD063
:107EB00058016CC0863521F484E08DD080E0DECF9F
:107EC000843609F041C06DD090E0182F002769D0AA
:107ED00090E0082B192B65D0D82EE801E12CF1E0B9
:107EE000FF2E5FD0F70181937F012197D1F76BD0EF
:107EF000F5E4DF1609F4FFCFF50187BEE89507B674
:107F000000FCFDCFB501A801A0E0B1E02C9130E06C
:107F100011968C91119790E0982F8827822B932BA4
:107F20001296FB010C0177BEE89511246E5F7F4F1E
:107F30004250504059F7F50197BEE89507B600FC4E
:107F4000FDCFC7BEE89522C0843791F42AD090E0D7
:107F5000D82FCC2726D090E0C82BD92B22D033D0D5
:107F60008501F80185918F0114D02197D1F70EC0BA
:107F7000853739F428D08EE10CD085E90AD08FE01E
:107F80007DCF813511F488E018D01DD080E101D07B
:107F900068CF982F8091C00085FFFCCF9093C600DA
:107FA00008958091C00087FFFCCF8091C00084FDC0
:107FB00001C0A8958091C6000895E0E6F0E098E140
:107FC000908380830895EDDF803219F088E0F5DF3B
:107FD000FFCF84E1DECF1F93182FE3DF1150E9F7C5
:107FE000F2DF1F910895282E80E0E7DFEE27FF27BC
:027FF0000994F2
:027FFE0000067B
:0400000300007E007B
:00000001FF
