:020000021000EC
:10FC0000112484B7882349F0982F9A70923029F0F4
:10FC100081FF02C097EF94BF10D185E080938100EF
:10FC200082E08093C00088E18093C10086E08093E9
:10FC3000C20080E18093C4008EE0EAD0279A86E07B
:10FC400020E33CEF91E0309385002093840096BB45
:10FC5000B09BFECF1F9AA8954091C00047FD02C0FF
:10FC6000815089F7FF24F39455E0E52E61E1D62E0B
:10FC7000C3D08134C1F4C0D0C82FD0D0C23809F469
:10FC80003AC0C13869F487E00CC0843709F482C0F7
:10FC9000853709F0A2C0C2D08EE1A7D087E9A5D0F0
:10FCA00083E0A3D09FC0823411F484E103C0853483
:10FCB00019F485E0BBD096C0853579F49DD0082F26
:10FCC0009BD0182F87FF03C08BB7816002C08BB712
:10FCD0008E7F8BBF000F111F84C0863581F48CD0BE
:10FCE0008D3459F489D0CBB787D0C170880FC82B19
:10FCF000CBBF81E09BD080E0D4CF83E0FBCF8436C4
:10FD000009F0C3CF79D0C82FD0E0DC2FCC2774D036
:10FD1000C82B72D0C82E5E01812C32E0932E6CD09D
:10FD2000F40181934F01F1E0AF1AB108C1F776D029
:10FD300085E4C81212C0DE5F4801A12C92E0B92E02
:10FD4000AC16BD0609F44EC0F50161915F01C40116
:10FD500082D0FFEF8F1A9F0AF3CF83E0F80187BFAD
:10FD6000E89507B600FCFDCFA0E0B2E0F8018D9168
:10FD70009D910C01F7BEE8951124229732962097A9
:10FD8000B1F7F801E7BEE89507B600FCFDCFD7BE96
:10FD9000E89528C031D0C82FD0E0DC2FCC272CD05C
:10FDA0005E01A82A29D0982E39D0E801F5E49F12E7
:10FDB0000BC0CE0148D019D081E0A81AB108219615
:10FDC000A114B104B1F70EC0FE018791EF010DD06F
:10FDD000E1E0AE1AB108C1F705C0813511F488E041
:10FDE00017D01CD080E101D043CF9091C00095FF87
:10FDF000FCCF8093C60008958091C00087FFFCCFA0
:10FE00008091C00084FD01C0A8958091C60008952E
:10FE1000E0E6F0E098E1908380830895EDDF8032A2
:10FE200019F088E0F5DFFFCF84E1DFCFCF93C82F53
:10FE3000E3DFC150E9F7CF91F1CF282E80E0E8DF72
:10FE4000E0E0FF270994F999FECF92BD81BDF89AB1
:10FE5000992780B50895262FF999FECF1FBA92BD34
:10FE600081BD20BD0FB6F894FA9AF99A0FBE01969B
:02FE70000895F3
:02FFFE000007FA
:040000031000FC00ED
:00000001FF
