:101D0000112484B714BE81FF26D185E08EBD8EE0FC
:101D10000ED1D49AD29A86E023EC3FEF91E03DBDFC
:101D20002CBD9BB9589BFECFCC9AA8958150B9F792
:101D3000EE24FF2493E0992EBB24B39485E0A82ED3
:101D40000FE7D02E1EECC12EDFD0813471F4DCD031
:101D5000082FF1D0023811F486E005C0013811F4E3
:101D600084E001C083E0C1D0BDC0823411F484E1BD
:101D700003C0853419F485E0E6D0B4C0853579F424
:101D8000C3D0E82EFF24C0D0082F10E0102F00276A
:101D90000E291F29000F111FCED07801A3C0863550
:101DA00021F484E0D0D080E0DECF843609F05FC03B
:101DB000ABD0AAD0182FA8D0C0E0D1E0A5D089938D
:101DC0001C17E1F7F70197BEE895B5D007B600FC00
:101DD000FDCFE114F10411F0A7012AC080910001A8
:101DE0002091010130E0322F222790E0282B392B5F
:101DF000309385012093840140910801809109016D
:101E000090E0982F882750E0842B952B90938701A2
:101E1000809386012450304020930801232F3327DC
:101E200020930901D0920001C092010140E050E0EE
:101E3000A0E0B1E02C9130E011968C91119790E0E8
:101E4000982F8827822B932B1296FA010C01B7BE8C
:101E5000E89511244E5F5F4FF1E0A034BF0751F7C2
:101E6000F701A7BEE89507B600FCFDCF3BC084375D
:101E700059F54AD049D0182F47D05DD0E701012F3E
:101E8000209719F48091840114C0C130D10519F450
:101E9000809185010EC0C830D10519F4809186016A
:101EA00008C0C930D10519F48091870102C0FE0134
:101EB000849121961AD0015019F70894E11CF11C65
:101EC0001150E10EF11C0EC0853739F434D08EE18B
:101ED0000CD083E90AD08CE046CF813511F488E03C
:101EE00026D029D080E101D02FCF2AE030E08095A4
:101EF000089410F4DA9802C0DA9A000014D013D0D3
:101F000086952A95B1F7089529E030E0CB99FECF68
:101F10000AD009D008D08894CB9908942A9511F05A
:101F20008795F7CF08959EE09A95F1F7089598E187
:101F300091BD81BD0895E8DF803219F088E0F7DFB8
:101F4000FFCF84E1D2CF1F93182FDEDF1150E9F7C6
:101F5000F2DF1F91089580E0EADFE4E0FF270994B3
:021EFE000604D8
:0400000300001D00DC
:00000001FF
