:107C000002C0E3C0F2C0112484B7882361F0982F2A
:107C10009A70923041F081FF02C097EF94BF282EF6
:107C200080E0BED0EDC182E08093C00088E1809307
:107C3000C10086E08093C20080E18093C4008EE0A2
:107C4000AFD093E0D92ECC24C39425E0B22E31E1FD
:107C5000A32E9AD0813471F497D0182FA7D0123860
:107C600011F481E005C0113811F488E001C083E00F
:107C700084D080C0823411F484E103C0853419F4C7
:107C800085E09CD077C0853539F47ED0C82F7CD074
:107C9000D82FCC0FDD1F6DC0863521F484E08ED047
:107CA00080E0E6CF843609F03BC06ED06DD0982ED0
:107CB0006BD0F82E00E011E067D0F80181938F01BE
:107CC0009E12FACF73D0F5E4FF120FC07E0100E0E0
:107CD00011E0901609F44EC0F80161918F01C701BF
:107CE000DDD0FFEFEF1AFF0AF4CFFE01D7BEE89513
:107CF00007B600FCFDCFFE01A0E0B1E08D919D91A3
:107D00000C01C7BEE895112432969A12F7CFFE01F6
:107D1000B7BEE89507B600FCFDCFA7BEE8952AC020
:107D20008437D1F431D030D0F82E2ED0E82E3ED08A
:107D30008E01F5E4EF1209C0FC0EC801A7D01DD0DA
:107D40000F5F1F4FF012F9CF15C0F80185918F0119
:107D500014D0FA94D1F70EC0853739F427D08EE1CC
:107D60000CD085E90AD08FE083CF813511F488E00B
:107D700017D01CD080E101D06CCF9091C00095FF4E
:107D8000FCCF8093C60008958091C00087FFFCCF90
:107D90008091C00084FD01C0A8958091C60008951F
:107DA000E0E6F0E098E1908380830895EDDF803293
:107DB00019F088E0F5DFFFCF84E1DFCFCF93C82F44
:107DC000E3DFC150E9F7CF91F1CFFC010A0167BFB2
:107DD000E895112407B600FCFDCF667029F0452B0D
:107DE00019F481E187BFE89508959F92AF92BF9201
:107DF000CF92DF92EF92FF920F931F93CF93DF9377
:107E0000B42E79014423B1F1EC01A12C6B01C81A05
:107E1000D90A40E050E063E0CE01D7DF8E01912C1B
:107E2000F601E00FF11F4591549161E0C801CDDFEB
:107E3000939493940E5F1F4F80E89812F1CF40E027
:107E400050E065E0CE01C1DFA394C058DF4FAB1016
:107E5000E0CF8FEF98E09EBF8DBFF701DF91CF910C
:107E60001F910F91FF90EF90DF90CF90BF90AF9058
:107E70009F900994DF91CF911F910F91FF90EF9008
:107E8000DF90CF90BF90AF909F900895F999FECF6B
:107E900092BD81BDF89A992780B50895262FF9994A
:107EA000FECF1FBA92BD81BD20BD0FB6F894FA9ADD
:087EB000F99A0FBE0196089536
:107EB80056657273696F6E3D382E31004F505449C4
:107EC800424F4F545F435553544F4D5645523D30E2
:107ED800004465766963653D61746D656761333239
:107EE800387000465F4350553D31363030303030C1
:107EF800304C00424947424F4F543D31004275696A
:107F08006C743A44656320323820323031383A3064
:107F1800373A30323A343600554152543D300042F7
:107F28004155445F524154453D313135323030007E
:107F38004C45443D4235004C45445F5354415254EE
:0C7F48005F464C41534845533D3000005B
:027FFE00010878
:0400000300007C007D
:00000001FF
