:107E0000112494B714BE892F8D7011F0892FD2D010
:107E100085E08093810082E08093C00088E18093B8
:107E2000C10086E08093C20080E18093C4008EE0B0
:107E3000ABD0259A86E020E33CEF91E030938500BB
:107E40002093840096BBB09BFECF1D9AA8958150CD
:107E5000A9F7EE24FF2453E0A52EBB24B39445E0FC
:107E6000C42E31E1D32E84D0813471F481D0082F17
:107E700091D0023811F482E005C0013811F486E097
:107E800001C083E06DD069C0823411F484E103C085
:107E9000853419F485E086D060C0853561F468D0FA
:107EA000082F10E065D090E0F82EEE24E02AF12AA9
:107EB000EE0CFF1C51C0863521F484E073D080E0C5
:107EC000E1CF843609F02CC053D052D0182F50D0B7
:107ED000082FC0E0D1E04CD089931C17E1F75AD0AD
:107EE000053409F4FFCFF701A7BEE89507B600FCFB
:107EF000FDCF9701A0E0B1E08D919D91F9010C01BA
:107F0000B7BEE89511242E5F3F4F1A17A9F7F70166
:107F1000C7BEE89507B600FCFDCFD7BEE8951DC0EB
:107F2000843769F425D024D0082F22D033D0E7013C
:107F3000FE018591EF0114D00150D1F70EC08537B5
:107F400039F428D08EE10CD085E90AD08FE09ACFA1
:107F5000813511F488E018D01DD080E101D083CFA5
:107F6000982F8091C00085FFFCCF9093C6000895A4
:107F70008091C00087FFFCCF8091C00084FD01C0CC
:107F8000A8958091C6000895E0E6F0E098E190831E
:107F900080830895EDDF803219F088E0F5DFFFCFB0
:107FA00084E1DECF1F93182FE3DF1150E9F7F2DFF2
:107FB0001F910895282E80E0E7DFE0E0FF27099475
:027FFE00020679
:0400000300007E007B
:00000001FF
