:107E0000112484B714BE81FFE6D085E08093810001
:107E100082E08093C00088E18093C10086E0809377
:107E2000C20088E08093C4008EE0BFD0259A86E02F
:107E300028E13EEF91E0309385002093840096BBCB
:107E4000B09BFECF1D9AA8958150A9F7EE24FF2480
:107E5000AA24A394B5E0CB2EA1E1BA2EF3E0DF2E45
:107E600098D0813461F495D0082FA5D0023829F13B
:107E7000013811F485E001C083E083D07FC08234F3
:107E800011F484E103C0853419F485E09CD076C0F8
:107E9000853579F47ED0E82EFF247BD0082F10E0C2
:107EA000102F00270E291F29000F111F84D07801E1
:107EB00065C0863521F484E086D080E0DECF84364C
:107EC00009F040C066D065D0082F63D080E0E81686
:107ED00080E7F80618F4F701D7BEE895C0E0D1E0D6
:107EE00058D089930C17E1F7F0E0EF16F0E7FF06A2
:107EF00018F0F701D7BEE8955ED007B600FCFDCFBD
:107F0000A701A0E0B1E02C9130E011968C9111977F
:107F100090E0982F8827822B932B1296FA010C0160
:107F2000A7BEE89511244E5F5F4FF1E0A038BF0770
:107F300051F7F701C7BEE89507B600FCFDCFB7BE05
:107F4000E8951CC0843761F424D023D0082F21D0B9
:107F500032D0F70185917F0114D00150D1F70EC0C6
:107F6000853739F428D08EE10CD085E90AD08FE02E
:107F700084CF813511F488E018D01DD080E101D084
:107F80006FCF982F8091C00085FFFCCF9093C600E3
:107F900008958091C00087FFFCCF8091C00084FDD0
:107FA00001C0A8958091C6000895E0E6F0E098E150
:107FB000908380830895EDDF803219F088E0F5DF4B
:107FC000FFCF84E1DECF1F93182FE3DF1150E9F7D5
:107FD000F2DF1F910895282E80E0E7DFEE27FF27CC
:027FE000099402
:027FFE0000057C
:0400000300007E007B
:00000001FF
