:101D0000112484B7882349F0982F9A70923029F0D3
:101D100081FF02C097EF94BFFED08EE0E9D0D29A47
:101D200023E0C22EBB24B39435E0A32ECDD0813462
:101D300071F4CAD0F82EE0D082E8F816F1F0E1E8AC
:101D4000FE1202C087E001C083E0AFD0ABC0823496
:101D500011F484E103C0853419F485E0D5D0A2C024
:101D6000853539F4B1D0C82FAFD0D82FCC0FDD1FB7
:101D700098C0863521F484E0C7D080E0E6CF843671
:101D800009F055C0A1D0A0D0F82E9ED0D82EEF2CAF
:101D900080E6882E912C98D0F40181934F01EA942B
:101DA000E110F9CFA9D0209719F590916000909398
:101DB000E400809161008093E50020916800209309
:101DC000E600209169002093E700092F182F0450A6
:101DD000110900936800812F8F70806C80936900D7
:101DE00000E81EE000936000812F806C809361000A
:101DF000F5E4DF1201C0FFCFFE01C7BEE89507B6CC
:101E000000FCFDCFA0E6B0E0FE018D919D910C019C
:101E1000B7BEE8951124FA94FA943296F110F5CFF2
:101E2000FE01A7BEE89507B600FCFDCF3BC0843796
:101E300059F54AD049D0D82E47D05ED07E01E11462
:101E4000F10419F48091E40017C0F1E0EF16F104F9
:101E500019F48091E50010C088E0E816F10419F447
:101E60008091E60009C0E9E0EE16F10419F48091D2
:101E7000E70002C0F701849118D0DA94FFEFEF1A5F
:101E8000FF0AD110DCCF0EC0853739F435D08EE192
:101E90000CD083E90AD08CE058CF813511F488E06A
:101EA00027D02AD080E101D041CF2AE030E08095D0
:101EB000089410F4DA9802C0DA9A000015D014D011
:101EC00086952A95B1F70895A89529E030E0CB9939
:101ED000FECF0AD009D008D08894CB9908942A95CF
:101EE00011F08795F7CF08959EE09A95F1F7089540
:101EF00098E191BD81BD0895E7DF803219F088E057
:101F0000F7DFFFCF84E1D1CFCF93C82FDDDFC15002
:101F1000E9F7CF91F1CF282E80E0EADFE4E0FF2758
:021F2000099422
:021FFE000007DA
:0400000300001D00DC
:00000001FF
